:100000000C94BC020C94010D0C94DA0C0C94E402D8
:100010000C94E4020C94E4020C94E4020C94E402C8
:100020000C94E4020C94E4020C94E4020C94E402B8
:100030000C94E4020C94E4020C94E4020C94E402A8
:100040000C94CA100C94E4020C944E0D0C94280DE0
:100050000C94E4020C94E4020C94E4020C94E40288
:100060000C94E70E0C94E402600203020304010204
:1000700004060B00FE07FE08FF017B032204962006
:1000800007DEF8F93700210ADEF809697730A700A2
:10009000220CDEF881244BB224E71300230EDEF895
:1000A000E1241AA4241AA4246705240EDEF8917012
:1000B0004A3A8E49A7318700250DDEF8E121E9A2F1
:1000C0002599D2534E260EDEF8612DAA8495A64CB2
:1000D000C961002709DEF891B4CE3700280ADEF89E
:1000E000A1B0DAB98E00290ADEF881B8DAB18E0142
:1000F0002A0CDEF80959529A925ACE0C2B0BDEF8D4
:10010000C969366869CE002C09DEF8F922AA6108AF
:100110002D08DEF8B9ED1C012E08DEF8F924EA04FA
:100120002F0DDEF8B1344CC3344CC33405300EDE31
:10013000F8E1294B22A5454AB26827310BDEF809C0
:10014000D9DA6DD06100320CDEF8E1294BC3C6412B
:100150008701330DDEF8E1294B3339C9A29D003404
:100160000DDEF829A19644A5410C7718350DDEF86F
:10017000D1414987384DB26827360EDEF8E1291D96
:10018000A22CC9922CDA09370BDEF8D1412D56EB9F
:100190001400380EDEF8E1294BB268CA922CDA0955
:1001A000390EDEF8E1294BB2248B8634DA093A0A9B
:1001B000DEF859451D1375023B0BDEF819ED98A8C2
:1001C0008621003C09DEF84961733B0C3D0BDEF8EB
:1001D000D9061D187446003E09DEF8E18EED2400B4
:1001E0003F0CDEF8E1294BC33A985300400EDEF88D
:1001F000E1294B92A5CB120F390C4110DEF80961B1
:10020000922551960C4A9664390C4210DEF8D121A1
:10021000CA922C19A22CC9922127430BDEF8E1299E
:100220004BD2B668274410DEF8D121CA922CC9926D
:100230002CC9922127450EDEF8D14149D3214AD35A
:10024000418701460DDEF8D14149D3214AEB340004
:10025000470EDEF8E1294BD248C9922CDA09481141
:10026000DEF8D12CC9922C19942CC9922C87014903
:100270000BDEF8D1414BBB0D3A0C4A0BDEF8496955
:100280004B9664D14E4B0FDEF8D12C892A99986495
:10029000512D87014C09DEF8D1BE0E3A0C4D0EDE11
:1002A000F8D12CB1F45B9225590E034E10DEF8D133
:1002B0002C91924E4A96644996C3004F0FDEF8E1A6
:1002C000294BB2244BB2248B7602500EDEF8D1219A
:1002D000CA922C19A2B44E03510FDEF8E1294BB299
:1002E000244BB2A469CE015211DEF8D121CA922C5E
:1002F00019A22CC9922C8701530DDEF8E1294BE29B
:1003000039C9A29D00540ADEF8D1414B7BA70055A4
:1003100010DEF8D12CC9922CC9922CC9A29D00568E
:1003200010DEF8D12CC9922C4AB2244C730A005723
:100330000FDEF8D12CC9922CE98B25CB6100581027
:10034000DEF8D12CC9A224AC445992E53000590EF4
:10035000DEF8D12CC9922C4AC2B44E015A0BDEF8F9
:10036000D1410DBB0E3A0C5B0ADEF81131EDAB8EBC
:10037000005C0CDEF881344EE3344EE3345D09DE7C
:10038000F801B51F75085E0BDEF809611265394F7B
:10039000005F07DEF8F9E3306009DEF88138E7270F
:1003A00000610EDEF81987244BB224B2E4300062FB
:1003B0000EDEF8D1EA1065499664C99013630CDE2D
:1003C000F819A72C49E32187016410DEF849693444
:1003D000245992255934E43000650DDEF819A72C14
:1003E000199478C86100660BDEF8295A38A6ED1416
:1003F00000670FDEF81987244BB2248B86349A00ED
:10040000680FDEF8D1EA10654996644996C3006921
:100410000ADEF80939A636EE046A0ADEF80939A6BA
:10042000F626026B0CDEF8D1A64AB645B51C066C62
:1004300009DEF861B5C79D006D0BDEF8D98628E9A5
:100440007F87016E0EDEF8D912494AB2244BB21CE6
:10045000066F0CDEF819A72CC9922CDA09700FDE92
:10046000F8D986284BB2244B86284D01710EDEF850
:100470001987244BB2248B86B402720BDEF8D91292
:10048000494AD23A0D730BDEF81987249E9321272F
:10049000740BDEF8096938A6651D06750DDEF8D9FE
:1004A0002A59922591258701760DDEF8D92A59948B
:1004B0006449985300770ADEF8D992FEA72427787A
:1004C0000CDEF8D94A495889B21C06790EDEF8D9F3
:1004D0002A5992255934A4D1047A0BDEF8D906B1F1
:1004E00071D061007B0BDEF8C2B4314E9B23007CDF
:1004F00009DEF891B4BF43007D0BDE78E2B4394CDD
:100500001B43007E09DEF819958ACE117F07DEF8BD
:10051000F9370000000004FFFF0000000000002485
:100520000027002A0000000000250028002B000002
:1005300000000800020100000304070000000000A2
:10054000000000010204081020408001020408108D
:1005500020010204081020000000002300260029CA
:10056000000404040404040404020202020202035C
:100570000303030303001E1711241FBECFEFD8E0AF
:10058000DEBFCDBF11E0A0E0B1E0E8EFF1E302C0D3
:1005900005900D92A838B107D9F727E0A8E8B1E097
:1005A00001C01D92AB3CB207E1F712E0CCEBD2E008
:1005B00004C02197FE010E94E818CB3BD107C9F780
:1005C0000E946C130C94FA180C940000FC01918D9D
:1005D000228D892F90E0805C9F4F821B91098F7341
:1005E0009927089580E090E0892B29F00E94610C02
:1005F00081110C940000089580E00895DC011A96A2
:10060000ED91FC911B9720E030E00994DC011696F7
:10061000ED91FC91179720E030E040E069E109940A
:10062000DC011696ED91FC91179720E030E040E058
:1006300068E109949A01DC011696ED91FC911797F7
:10064000462F67E10994EF92FF920F931F93CF9388
:10065000DF931F92CDB7DEB77C018B01D8016C917F
:100660006731E1F078F46531A0F1F8014181498307
:10067000D7011696ED91FC91179720E030E0C70165
:10068000099524C06A31A8F06E3F19F5F80141813F
:10069000498369E2C7010E94FE0218C0F801818106
:1006A0008983AE014F5F5F4F61E0C7010E941A036B
:1006B0000DC00F5F1F4FD7011696ED91FC91179754
:1006C00020E030E040E0C7010995C8CF0E5F1F4F22
:1006D000C5CF0F90DF91CF911F910F91FF90EF90B9
:1006E0000895462FDC011696ED91FC91179720E0B6
:1006F00030E065E10994AF92BF92CF92DF92EF9222
:10070000FF920F931F93CF93DF93EC01693031F485
:100710008AE391E0998388831C8A7FC079016B30DA
:10072000E1F16F3009F444C06A3009F078C0EA851D
:10073000FB8520E030E040E068E20995EE81FF8132
:1007400020E030E040E064E1CE01099541E06BE457
:10075000CE010E94FE02E881F981448169E2CE0166
:100760000E94FE0240E06BE4CE010E94FE02E8819E
:10077000F981448169E2CE010E94FE0241E06BE40E
:10078000CE010E94FE02E881F981458169E2CE0135
:100790000E94FE0267E271E007C0411103C060E2FF
:1007A00071E002C065E171E0CE010E94230335C013
:1007B000F9010481000F000F000F1381169500321C
:1007C00010F00052185FCE010E941003F701A080C4
:1007D000B1806EE3CE010E9471036EE3CE010E94F0
:1007E0007103D12C10686D2D600F6068CE010E94DE
:1007F0007103612FCE010E947103F701C280A50130
:100800006C2DCE010E941A03AC0CB11CD394F8E0FD
:10081000DF12E9CFCE010E94060381E001C080E033
:10082000DF91CF911F910F91FF90EF90DF90CF90CC
:10083000BF90AF9008959A01DC011896ED91FC915C
:100840001997462F67E10994CF93DF931F92CDB795
:10085000DEB76983AE014F5F5F4F61E00E941B040A
:100860000F90DF91CF910895CF92DF92EF92FF9298
:100870000F931F93CF93DF93EC01142F790166310F
:1008800031F1F8F4643109F47BC0653109F086C0B8
:1008900068EF0E94240441E06CE2CE010E94FE0257
:1008A000612F607FCE010E94240441E06CE2CE0102
:1008B0000E94FE02612F6295607FCE010E94240497
:1008C00058C0673199F06A3108F068C059C068EFC4
:1008D0000E942404612F607FCE010E942404612FB6
:1008E0006295607FCE010E94240448C06AEF0E9496
:1008F000240441E06CE2CE010E94FE026701012F58
:10090000083058F4812F8695869586951770E8E013
:100910008E9FE00CF11C11241AC0ECEBF1E0D60123
:100920008D91982F907F90838295807F81833296DE
:1009300081E0EC3CF807A1F798E0C90ED11C085003
:100940004CEB51E060E1CE010E941B04D9CF112392
:1009500081F0F70101917F01602F607FCE010E943D
:100960002404602F6295607FCE010E942404115000
:10097000EECF41E06CE2CE010E94FE0281E00FC0AA
:10098000E885F9859701412FCE01DF91CF911F9125
:100990000F91FF90EF90DF90CF90099480E0DF916E
:1009A000CF911F910F91FF90EF90DF90CF9008951E
:1009B000662329F06A3019F0862F90E008958FEFB2
:1009C0009FEF08950F93DC01DE963C91DE97431B69
:1009D000D496ED91FC91D59709950F910895CF93F9
:1009E000DF93FC01A081B18192AD892F880F880F20
:1009F000880F85AF50968C915097803208F08FE128
:100A0000880F880F880F84AF23AD822F880F880F3F
:100A1000880F86AF51963C915197422F50E0490F75
:100A2000511D632F70E06417750714F4932F921B08
:100A300087AFEF01C05CDF4F28E0929F800D11244B
:100A40008883219680EF888354968D919C91559749
:100A5000813F910508F48883EE5BFF4F56968C9199
:100A60008083DF91CF9108956150FC01808D6817DC
:100A700010F06FEF680F862F08956F5FFC01808D77
:100A8000681708F060E0862F08950F93CF93DF93E7
:100A9000DC01ED91FC915089362F3770E0E8F0E0F1
:100AA00002C0F595E7953A95E2F73E2FA52FB0E005
:100AB000FC01C0ADD1AD669566956695E62FF0E078
:100AC000459FE00DF11D1124EC0FFD1FEC01C758EF
:100AD000DF4F01111DC08881823018F49081932B63
:100AE00090838881813019F0908193279083369587
:100AF00011F4319630E8215071F711C088818130AE
:100B000019F0908193279083EA0FFB1F215039F051
:100B10008881823098F79081932B9083EFCFDF917B
:100B2000CF910F91089580E008951F93CF93DF93A5
:100B3000EC01A881B981683109F493C030F46431C3
:100B400009F484C0673149F0E1C0693109F4CDC0CE
:100B5000603209F0DBC06AE4D4C01C968C9180FD41
:100B60005EC0442309F4D0C0F90181919F01415036
:100B7000DFB7F894A091BA01B091BB019091B9018F
:100B8000E091B701F091B801C091B6017091B50143
:100B900081110EC08C9198239C9388E090819C2BAE
:100BA00090839081972390838150C1F7DFBFD9CF85
:100BB0001091B40158E06C9187FF02C0612B01C015
:100BC00069236C9360816C2B6083880F608167233D
:100BD0006083515081F7EACFF90181919F01415023
:100BE000DFB7F894A091BA01B091BB019091B9011F
:100BF000E091B701F091B8017091B601C091B501D3
:100C0000811110C08C9198239C9388E090819C2343
:100C100090839081972B90838150C1F7DFBF411162
:100C2000DBCF72C01091B40158E06C9187FF02C015
:100C3000612B01C069236C9360816C236083880FF2
:100C40006081672B6083515081F7E8CF11964C91FA
:100C500069E40E94FE02E881F9814485417060E404
:100C600050C04C9169E40E94FE02A881B981EA85D6
:100C7000FB8520E030E012964C916CE2CE010995A4
:100C80008E8D90E0FC01EF59FA4FE491F0E0EE0F09
:100C9000FF1FEB5DFA4F259134913093B8012093FB
:100CA000B701FC01ED5BFA4FE491E093B601E095EA
:100CB000E093B5018F8D90E0FC01EF59FA4FE4917C
:100CC000F0E0EE0FFF1FEB5DFA4F2591349130936A
:100CD000BB012093BA01FC01ED5BFA4FE491E09374
:100CE000B401E095E093B9010FC0EA85FB8520E0EF
:100CF00030E013964C916CE20995E881F9814181CD
:100D000069E4CE010E94FE0281E001C080E0DF9133
:100D1000CF911F91089581E08093CC010895CF92E7
:100D2000DF92EF92FF920F931F93CF93DF936C01AB
:100D3000EB017B01E40EF51E00E010E0CE15DF05AF
:100D400061F06991D601ED91FC910190F081E02D67
:100D5000C6010995080F191FF1CFC801DF91CF9186
:100D60001F910F91FF90EF90DF90CF90089508951D
:100D700080E090E008958F929F92AF92BF92CF92C1
:100D8000DF92EF92FF92CF93DF93EC016C3288F405
:100D90006A3208F089C06832B9F0693209F06DC072
:100DA000C42ED12CE12CF12C0E94A5104B015C012A
:100DB0003DC06D3209F440C008F45FC084EB860F7B
:100DC000823008F448C059C07C012EE1E20EF11CCB
:100DD000D0E0F70181917F018F3F39F0D03110F4DD
:100DE00061E001C062E00E946910DF5FD63189F7DF
:100DF0005BC00E94A510DC01CB0188199909AA09E2
:100E0000BB09883E9340A105B10580F0F1E0CF1AFF
:100E1000D108E108F10828EE820E23E0921EA11C01
:100E2000B11CC114D104E104F10419F7C114D104B7
:100E3000E104F104F1F638C0433018F082E090E0AC
:100E400002C085E090E0880F991F880F991F0597D1
:100E50000197F1F729C0862F8F73C80FD11D41115B
:100E600007C061E08E8D0E94691060E08E8D12C017
:100E700062E08E8D0E94691017C06034B8F0962F22
:100E80009F73FE01E90FF11D868D8F3F69F0903150
:100E900020F4642F0E943A1007C00E94111021E034
:100EA000892B09F420E0298F81E001C080E0DF91E7
:100EB000CF91FF90EF90DF90CF90BF90AF909F9039
:100EC0008F900895FC01848DDF01A80FB11DA35AF6
:100ED000BF4F2C91848D90E001968F739927848F5A
:100EE000A689B7892C93A089B1898C91837080647D
:100EF0008C93938D848D981306C00288F389E02D1E
:100F000080818F7D80830895FC0140855185828595
:100F10009385481759072CF524853585848195815B
:100F2000280F391F358724876685778586819781C5
:100F3000860F971F978786871816190664F46081B5
:100F40007181260F371F3587248722813381821BC9
:100F5000930B978786874F5F5F4F5187408781E06C
:100F6000089580E008950F93FC01EB5BFF4F308103
:100F700031965081451728F4301730F0041720F0CF
:100F800010C03017D8F30DC0FC01ED5BFF4F30816E
:100F900031968081681738F4321740F081E02617C7
:100FA00030F080E004C03217C8F3FBCF81E00F912E
:100FB00008952F923F924F925F926F927F928F92FD
:100FC0009F92AF92BF92CF92DF92EF92FF920F93D8
:100FD0001F93CF93DF93EC014C0183E4880E911CA7
:100FE000F4011082329720805E01F4E4AF0EB11C50
:100FF000F50120823FAC6E01F5E4CF0ED11CF60165
:101000003082359740807E01F6E4EF0EF11CF70147
:10101000408234961081329760803196708032978A
:101020005080012F262D472D652DCE010E94B3073C
:10103000CD58DF4F811102C0188212C081E0888331
:10104000552011F0F4015082621410F4F501608211
:10105000371410F4F6017082141510F4F7011083A0
:10106000DF91CF911F910F91FF90EF90DF90CF9084
:10107000BF90AF909F908F907F906F905F904F90B8
:101080003F902F9008950F93DC01802FFD01ED58C4
:10109000FF4F9081992309F463C0222309F460C0B3
:1010A000223048F0023019F46F5F621B04C0033035
:1010B00011F44F5F421B082F0170FD0180FD25C018
:1010C000EB5BFF4F8081481708F44AC0319680815E
:1010D000481708F045C03297908131978081260FDC
:1010E000261730F4691718F42FEF290F03C0682F63
:1010F0006917B0F58217A0F5681708F4682F29174B
:1011000008F4922F292F261B22C0ED5BFF4F808110
:10111000681730F131968081681710F5329690810A
:1011200031978081240F241730F4491718F42FEFDA
:10113000290F03C0482F491798F4821788F44817DD
:1011400008F4482F291708F4922F292F241BD6962C
:10115000ED91FC91D7970480F581E02DCD010995A3
:101160000F910895213039F020F0223031F4861BA0
:101170000895860F0895841B0895840F08952130E3
:1011800039F020F0223031F4841B0895840F089543
:10119000860F0895861B0895FC01E60FF11D8491CA
:1011A00090E0982F88273196E4918E0F911D089535
:1011B0002F923F924F925F926F927F928F929F9267
:1011C000AF92BF92CF92DF92EF92FF920F931F9355
:1011D000CF93DF93CDB7DEB727970FB6F894DEBF76
:1011E0000FBECDBF7C016C0124E0C20ED11CFC01FE
:1011F000E158FF4F0190F081E02DC60109958C0167
:101200008E3F9F4F08F0CEC1370182E8680E711CF7
:10121000F301F081FB83470121E8820E911CF40168
:10122000F081FD839701215A3F4F3A832983F901C9
:1012300080818130E9F080F0823031F1833079F5BE
:10124000F701EF5AFF4F0190F081E02DC60109959B
:101250009D81980F9D8323C0F701EF5AFF4F0190A6
:10126000F081E02DC6010995FB81F80FFB8317C0C3
:10127000F701EF5AFF4F0190F081E02DC60109956B
:101280002D81281B2D830BC0F701EF5AFF4F0190D2
:10129000F081E02DC60109953B81381B3B83F701A6
:1012A000EB5AFF4F2D81208331963B813083379756
:1012B0008081918147969C838B830F3F110509F0B4
:1012C00070F50136110510F0B49606C00134110511
:1012D00058F0F701EF58FF4F808191812B813C81BD
:1012E000280F391F3C832B838B819C810196FC0145
:1012F0002491222309F454C1EB81FC81249130E034
:101300000217130729F45F01F2E0AF0EB11C46C0CB
:10131000FC0184912B813C81280F311DE3CFF70123
:10132000EB58FF4FA080B1808B819C81A80EB91E25
:10133000BC82AB8260E0C5010E94CC08EB81FC81DD
:10134000E80FF91FFC83EB8362E0C5010E94CC0823
:10135000F4E0AF0EB11C8017910760F3EB81FC81C4
:10136000849190E0982F88273196E4918E2B0097F6
:1013700009F416C10817190731F4AB80BC80F3E0FB
:10138000AF0EB11C0BC0EB81FC813296E4912B8136
:101390003C812E0F311D3C832B83E0CFA114B1047F
:1013A00009F4FEC0C7018D5A9F4F9F838E83FC01B5
:1013B000B182A0821086719660810E946511EE81D3
:1013C000FF818683F701EB59FF4F60818E819F81FA
:1013D0000E946511A82EEE81FF8187839701235813
:1013E0003F4F3C832B83F9019081EE81FF819287EF
:1013F00081E0911180E0EE81FF818387F701EA5956
:10140000FF4F1081612F8E819F810E9465119FEF98
:10141000910F01E010E0980101C0220F9A95EAF7C0
:10142000482E421AF701E959FF4FB0806B2D8E818B
:101430009F810E946511BA94180101C0220CBA94D0
:10144000EAF78A0D8D83F701E859FF4FB0806B2DC5
:101450008E819F810E946511BA9401C0000FBA94D9
:10146000EAF7582E501AEE81FF81068110160CF013
:101470007FC0B484322CFD813F1A2B2D432D642D67
:10148000EE81FF8182810E94B208182FEE81FF81D8
:1014900082832B2D432D642D83810E94BF08EE8112
:1014A000FF818383F1E0BF16B1F0BF1678F022E030
:1014B000B216B9F033E0B3121FC0212F2A0D982FB6
:1014C000901B01E0080F81E0890F18C0202F210F29
:1014D000082F0A0D13C0BA1821E0210F080F1B0DA9
:1014E0000DC091E0392F301B21E0210F9A1901E046
:1014F000080F890F130F02C0082F212F482F612FCB
:10150000C6010E94B307882399F1EE81FF811482FE
:1015100015821701F2E62F0E311C23E6E20EF11CB4
:10152000F10160818E819F810E946511082FF70172
:1015300060818E819F810E946511182F40E0602F8D
:10154000C6010E94921141E0612FC6010E949211D2
:1015500061E08E819F810E9465118111EFCFEE8144
:10156000FF8185818A15E4F28285EB81FC8180838D
:10157000E981FA818081813049F030F0823059F080
:10158000833081F4F30108C0F40101C0F3018081CC
:10159000580E508207C0F40180818519808302C0F3
:1015A000512CE6CF81E090E027960FB6F894DEBF8D
:1015B0000FBECDBFDF91CF911F910F91FF90EF90A4
:1015C000DF90CF90BF90AF909F908F907F906F9063
:1015D0005F904F903F902F900895CF92DF92EF92BF
:1015E000FF920F938091100190911101A09112012F
:1015F000B09113019C01AD01245F314041095109B3
:10160000ADE2B0E00E94841821E13EEF4FEF5FEFC2
:101610000E9465182093B0013093B1014093B2014C
:101620005093B3018091CE019091CF01A091D00150
:10163000B091D1014091AC015091AD016091AE01EA
:101640007091AF01841B950BA60BB70B893C9105DC
:10165000A105B10508F4D1C080E00E94B0122FE0CE
:1016600044E369E281E00E94B6122FE040E869E2BB
:101670008BE40E94B61281E00E94B01280911001AA
:1016800090911101A0911201B0911301893F9140F5
:10169000A105B105D1F0809114012091B0013091E4
:1016A000B101882339F0C901855B9F4FA9014D5ACB
:1016B0005F4F08C085E390E0821B930B4EE250E041
:1016C000421B530BBC010E94050E809110019091AA
:1016D0001101A0911201B09113019C01AD01245F91
:1016E000314041095109A3E6B0E00E94841821E18C
:1016F0003EEF4FEF5FEF0E94651869017A018FEFAF
:10170000C81AD80AE80AF80A9601C6010A978A3563
:10171000910510F495E001C092E0243631050CF0FB
:1017200098E080E4891B8093BD0384E38093BE032B
:1017300081E00E94B01208E32BE449E265E380E413
:1017400093E00E94B3078823F9F000E026E149E224
:1017500065E380E493E00E94430801E02DE04AE263
:1017600065E380E493E00E9443082DE04AE26AE4E6
:1017700080E493E00E94430800E026E147E365E34C
:1017800080E493E00E9443088091CD01882359F0C2
:1017900081E00E94B0122DE044E16AE286E30E94FB
:1017A000B61280E00AC080E00E94B0122DE044E151
:1017B0006AE286E30E94B61281E00E94B012C6017E
:1017C0000E94801280E493E00E94211280E493E062
:1017D0000E9417122FB7F8948091DA019091DB01E3
:1017E000A091DC01B091DD012FBF8093AC019093FB
:1017F000AD01A093AE01B093AF010F91FF90EF90B8
:10180000DF90CF9008950895CF92DF92EF92FF92EC
:101810000F931F93CF93DF936C017A018B01C0E08C
:10182000D0E0CE15DF0581F0D8016D918D01D60194
:10183000ED91FC910190F081E02DC6010995892B75
:1018400011F02196EECF7E01C701DF91CF911F915C
:101850000F91FF90EF90DF90CF900895FC01538D92
:10186000448D252F30E0842F90E0821B930B54177A
:1018700010F0CF96089501970895FC01918D828D07
:10188000981761F0828DDF01A80FB11D5D968C91D4
:10189000928D9F5F9F73928F90E008958FEF9FEFDF
:1018A0000895FC01918D828D981731F0828DE80F9B
:1018B000F11D858D90E008958FEF9FEF08950E94B0
:1018C000EE1880E992E00E94E60221E0892B09F4FB
:1018D00020E0822F0895EF92FF920F931F93CF93F2
:1018E000DF93EC0181E0888F9B8D8C8D981305C070
:1018F000E889F989808185FD26C0F62E0B8D10E0E0
:101900000F5F1F4F0F731127E02E8C8DE8120CC054
:101910000FB607FCFACFE889F989808185FFF5CFFA
:10192000CE010E946207F1CF8B8DFE01E80FF11D01
:10193000E35AFF4FF0829FB7F8940B8FEA89FB8937
:10194000808180620AC09FB7F894EE89FF89608326
:10195000E889F98980818370806480839FBF81E0FA
:1019600090E0DF91CF911F910F91FF90EF9008953C
:10197000CF93DF93EC01888D8823C9F0EA89FB8936
:10198000808185FD05C0A889B9898C9186FD0FC02D
:101990000FB607FCF5CF808185FFF2CFA889B98902
:1019A0008C9185FFEDCFCE010E946207E7CFDF91DA
:1019B000CF9108951F920F920FB60F9211242F937B
:1019C0003F934F935F936F937F938F939F93AF93C7
:1019D000BF93EF93FF93E0910201F091030109950A
:1019E000FF91EF91BF91AF919F918F917F916F91F7
:1019F0005F914F913F912F910F900FBE0F901F90CD
:101A000018951F920F920FB60F9211242F933F93A8
:101A10004F935F936F937F938F939F93AF93BF93F6
:101A2000EF93FF93E0910001F09101010995FF917F
:101A3000EF91BF91AF919F918F917F916F915F9146
:101A40004F913F912F910F900FBE0F901F901895BF
:101A50001F920F920FB60F9211242F933F934F9323
:101A60005F936F937F938F939F93AF93BF93EF9306
:101A7000FF9380E992E00E946207FF91EF91BF918E
:101A8000AF919F918F917F916F915F914F913F9116
:101A90002F910F900FBE0F901F9018951F920F92CD
:101AA0000FB60F9211242F938F939F93EF93FF9371
:101AB000E091A002F091A1028081E091A602F09154
:101AC000A70282FD12C090818091A9028F5F8F735F
:101AD0002091AA02821751F0E091A902F0E0E057AC
:101AE000FD4F958F8093A90201C08081FF91EF91F6
:101AF0009F918F912F910F900FBE0F901F9018956F
:101B000085ED8093BC008091BC0084FDFCCF1092D9
:101B10002802089540910402262F30E0240F311D41
:101B200021323105DCF4209128022430C9F4FC0173
:101B300080E090E0861758F4309104022191DC0196
:101B4000AC51BE4FA30FB11D2C930196F3CF8091E2
:101B50000402680F6093040280E0089581E0089514
:101B600082E0089508958FEF9FEF08958FEF9FEF24
:101B700008958091E30190E09195819591090895F0
:101B8000CF93DF93CB01EA01642F0E948A0DCE012F
:101B9000DF91CF910895CF93DF931F92CDB7DEB73A
:101BA000698361E0CE0101960E948A0D81E090E098
:101BB0000F90DF91CF910895833081F028F4813028
:101BC00099F08230A1F008958730A9F08830B9F0FB
:101BD0008430D1F4809180008F7D03C0809180009B
:101BE0008F7780938000089584B58F7702C084B585
:101BF0008F7D84BD08958091B0008F7703C0809160
:101C0000B0008F7D8093B00008950F93CF93DF9342
:101C100090934F0280934E0288E290E0909351029D
:101C200080935002709353026093520288E390E0D5
:101C3000909355028093540250935702409356025A
:101C400080E390E0909359028093580283E0809360
:101C500066028DE395E090938E0280938D0284E37B
:101C600095E090937B0280937A0210927C0280E14F
:101C700090E0909369028093680210928F0261E075
:101C800088E290E00E943D1360E088E290E00E94CC
:101C90003D1381E080936702A0917C0284E0A89FBD
:101CA000D0011124A25BBD4FE0918F0284E0E89F38
:101CB000F0011124E25BFD4F2D913C9180819181D7
:101CC0002817390719F0109267020CC0809168023A
:101CD0009091690201979093690280936802892B21
:101CE00009F471C0C0916802D091690280E00E943D
:101CF000DD1281E00E94DD1280916702882341F0AD
:101D00008AE692E00E9484078DE792E00E948407B1
:101D1000409185025091860257FD3CC0809182031C
:101D200090E048175907B4F58091760290917702B8
:101D30006091890270918A0286179707ACF477FD4B
:101D400029C02091810330E0821793071CF597FF8B
:101D500002C080E090E0261737070CF4B901262F67
:101D6000281B00E0682F12C097FD14C0209181034A
:101D700030E06217730774F477FF02C080E090E0F0
:101D8000821793070CF49C01261B00E080E493E08B
:101D90000E9443088AE692E00E948407811104C0F1
:101DA00080E00E94DD12F6CF8DE792E00E9484076A
:101DB000811104C081E00E94DD12F6CF21971C162C
:101DC0001D060CF4A5CFDF91CF910F9108951F92BE
:101DD0000F920FB60F9211242F933F934F935F935F
:101DE0006F937F938F939F93AF93BF93EF93FF93E3
:101DF0008091B900887F803609F49CC068F58832EC
:101E000009F45BC090F4803109F454C038F488239D
:101E100009F4F2C0883009F44DC0F2C0883109F4E9
:101E20004CC0803209F45DC0EBC0803409F468C056
:101E300048F4803309F455C0883309F0E1C0809339
:101E40002702D4C0803509F44FC0883509F45DC03D
:101E5000883409F0D5C0D2C0883909F4C3C0A8F4C9
:101E6000883709F467C038F4883609F463C08037CE
:101E700009F460C0C5C0883809F4B4C0803909F4D9
:101E80005FC0803809F0BCC05BC0803B09F484C0EF
:101E900038F4803A09F466C0883A09F47DC0B0C0CD
:101EA000803C09F4A3C0883C09F4A0C0883B09F435
:101EB00086C0A6C080914D0210C090914C028091C6
:101EC0004B02981770F5E0914C0281E08E0F8093E1
:101ED0004C02F0E0E55DFD4F80818093BB0085EC16
:101EE00082C0809327028AC0E0914C0281E08E0F6D
:101EF00080934C028091BB00F0E0E55DFD4F808354
:101F000090914C0280914B026AC0E0914C0281E0BA
:101F10008E0F80934C028091BB00F0E0E55DFD4F99
:101F2000808380912A02811169C081E08093290217
:101F300084EA5DC083E08093280210922602CFCF0E
:101F400080912602803208F04DC0E091260281E0A7
:101F50008E0F809326028091BB00F0E0EA5FFD4F78
:101F60008083BDCF85EC8093BC00109228028091C5
:101F70002602803230F4E0912602F0E0EA5FFD4F65
:101F800010826091260270E086E092E0E0E0F0E0EE
:101F900009951092260234C084E0809328021092A2
:101FA000050210920402E0E0F0E00995809104023D
:101FB000811105C081E0809304021092E401E09158
:101FC000050281E08E0F80930502F0E0EC51FE4F98
:101FD00080818093BB009091050280910402981744
:101FE00008F47DCF85E88093BC000AC085EC80931F
:101FF000BC001092280204C0109227020E94800D9B
:10200000FF91EF91BF91AF919F918F917F916F91D0
:102010005F914F913F912F910F900FBE0F901F90A6
:102020001895CF93DF93282F30E0F901E15DFA4F47
:102030008491F901ED5BFA4FD491F901EF59FA4F10
:10204000C491CC2391F081110E94DC0DEC2FF0E0C3
:10205000EE0FFF1FE95AFA4FA591B491EC91ED23D1
:1020600081E090E021F480E002C080E090E0DF9128
:10207000CF9108951F93CF93DF93282F30E0F9017C
:10208000E15DFA4F8491F901ED5BFA4FD491F901CA
:10209000EF59FA4FC491CC23C1F0162F81110E9441
:1020A000DC0DEC2FF0E0EE0FFF1FEB5DFA4FA5917A
:1020B000B4919FB7F894111104C08C91D095D82396
:1020C00002C0EC91DE2BDC939FBFDF91CF911F917B
:1020D0000895CF93DF9390E0FC01ED5BFA4F2491DC
:1020E000FC01EF59FA4F8491882361F190E0880F49
:1020F000991FFC01E55EFA4FC591D491FC01EB5D9F
:10210000FA4FA591B491611109C09FB7F8948881E5
:10211000209582238883EC912E230BC0623061F4DA
:102120009FB7F8948881322F309583238883EC9170
:102130002E2B2C939FBF06C08FB7F894E8812E2BCF
:1021400028838FBFDF91CF9108953FB7F894809196
:10215000DF019091E001A091E101B091E20126B58B
:10216000A89B05C02F3F19F00196A11DB11D3FBFCF
:10217000BA2FA92F982F8827820F911DA11DB11D5D
:10218000BC01CD0142E0660F771F881F991F4A9559
:10219000D1F708951F920F920FB60F9211242F932B
:1021A0003F938F939F93AF93BF938091DA01909168
:1021B000DB01A091DC01B091DD013091DE0123E073
:1021C000230F2D3720F40196A11DB11D05C026E86F
:1021D000230F0296A11DB11D2093DE018093DA0129
:1021E0009093DB01A093DC01B093DD018091DF01CE
:1021F0009091E001A091E101B091E2010196A11D51
:10220000B11D8093DF019093E001A093E101B093B1
:10221000E201BF91AF919F918F913F912F910F90CC
:102220000FBE0F901F9018958F929F92AF92BF9202
:102230000F931F93CF93DF93CDB7DEB7A1970FB660
:10224000F894DEBF0FBECDBF19A2423008F44AE0B9
:102250008E010F5D1F4F842E912CA12CB12CA50156
:1022600094010E948F18E62FB901CA01015011098B
:10227000EA3014F4E05D01C0E95CD801EC93232B53
:10228000242B252B61F70115110571F0F801019040
:102290000020E9F73197AF01401B510BB8018CE3E7
:1022A00093E00E948F0602C080E090E0A1960FB6F6
:1022B000F894DEBF0FBECDBFDF91CF911F910F917C
:1022C000BF90AF909F908F900895DC0118964C912D
:1022D0001897ED91FC911197249130E0042E02C0E3
:1022E000359527950A94E2F7842F860F883010F4ED
:1022F000E22F0DC031961196FC93EE93E49198E095
:10230000941B01C0EE0F9A95EAF7E22B88501896BD
:102310008C9381E090E001C0880F6A95EAF78150C4
:102320008E2308955F926F927F928F929F92AF92C9
:10233000BF92CF92DF92EF92FF920F931F93CF93B2
:10234000DF935C01162F642EEC01C15BDF4FDC8054
:10235000ED804C0189E7880E911CFE80FD18CF2C82
:102360001F1508F4C12E5B800C85202F4E2D6D2D7E
:102370008A810E94B208782E202F4E2D6D2D852D3A
:102380000E94BF08482F662011F08A8504C0898505
:10239000811108C08B85F40180832C2D672DC50128
:1023A0000E9443081F1520F01F19E394D12CD5CFAC
:1023B0001D0D1C83ED82DF91CF911F910F91FF9036
:1023C000EF90DF90CF90BF90AF909F908F907F90D5
:1023D0006F905F900895CF93DF93CCE3D3E08FAFFE
:1023E000EAADFBAD0190F081E02D80E493E009952A
:1023F000EAADFBAD0280F381E02D80E493E0DF9154
:10240000CF910994ECE3F3E0A481B58150968C91CF
:1024100046AD849FA001112483E0440F551F8A9587
:10242000E1F760E070E084AD95AD0C94F318DC0149
:102430001496ED91FC91159720E030E040E060E1CA
:102440000994AF92BF92CF92DF92EF92FF920F93D7
:102450001F93CF93DF9300D000D01F92CDB7DEB78C
:102460008C01DC01DA96AC90DA97DB96EC90DB9786
:10247000ED91FC91B188FE2CC12CD12CD801ED91AD
:10248000FC9111978089D8964D915C91D9971C82C7
:10249000FD828B83B8E08B9FC00111248C9D90013D
:1024A0008D9D300D9C9D300D1124CA01820F931F0C
:1024B0009A838983D8011496ED91FC9115979E011A
:1024C0002F5F3F4F41E06FE0C8010995F3948F2DD6
:1024D0008E198A1528F4BFEFCB1ADB0AFB1470F2B1
:1024E0000F900F900F900F900F90DF91CF911F9151
:1024F0000F91FF90EF90DF90CF90BF90AF90089535
:10250000CF92DF92EF92FF92CF93DF936C01990FFE
:10251000EE08FF08F7FE19C06DE28CE393E00E941D
:10252000D808EC0166277727CB016C197D098E0945
:102530009F094AE00E9414118C0F9D1FDF91CF91DB
:10254000FF90EF90DF90CF9008954AE0C701B60169
:10255000DF91CF91FF90EF90DF90CF900C9414110A
:10256000833008F081E08093B9030895FF920F93C0
:102570001F93CF93DF93182FC62FF42ED62FD20F91
:10258000282F240F0D2F462F682F80E493E00E9400
:10259000B307882361F0DC1751F000E02F2D4C2F9A
:1025A000612F80E493E00E944308CF5FF4CFDF9176
:1025B000CF911F910F91FF900895EF92FF920F938B
:1025C0001F93CF93DF9323E1829FC0011124EC017D
:1025D000C659DD4F6A8984E0689FF0011124E25BEF
:1025E000FD4FE280F38000811181E889F9898EE452
:1025F00092E0099594E0899FF0011124E25BFD4F80
:1026000042815381208131818A8BC901801B910BCA
:102610009A012E193F093B832A835B874A87F986F3
:10262000E8861D870C8797FD08C041E050E059837C
:1026300048831F861E86FC010EC04FEF5FEF598353
:102640004883EE27FF27E81BF90B41E050E0421BCF
:10265000530B5F874E87B9010E94C0187D836C833E
:10266000CF01B9010E94C0189F838E83DF91CF9163
:102670001F910F91FF90EF900895EF92FF920F93AB
:102680001F93CF93DF938C0183E1689FF0011124A6
:10269000E25BFD4F86A57F019CE2E90EF11CEF0194
:1026A000AE96D701ED91FC91682F8EE492E00995EA
:1026B000B4E08B9FF0011124E25BFD4F2281338156
:1026C0002017310711F48883ECCFDF91CF911F9150
:1026D0000F91FF90EF900895789484B5826084BD47
:1026E00084B5816084BD85B5826085BD85B5816016
:1026F00085BD80916E00816080936E001092810094
:10270000809181008260809381008091810081604E
:10271000809381008091800081608093800080910F
:10272000B10084608093B1008091B000816080939B
:10273000B00080917A00846080937A0080917A0062
:10274000826080937A0080917A00816080937A0021
:1027500080917A00806880937A001092C10084EFA3
:1027600091E0A0E0B0E080930C0190930D01A09364
:102770000E01B0930F018093100190931101A0936B
:102780001201B093130160E085E00E943A1060E00E
:1027900083E00E943A101092CC011092CD01E0919A
:1027A000A002F091A10282E08083E0919C02F0916E
:1027B0009D021082E0919E02F0919F0280E1808351
:1027C0001092A802E091A402F091A50286E0808315
:1027D000E091A202F091A302808180618083E09168
:1027E000A202F091A302808188608083E091A2021E
:1027F000F091A302808180688083E091A202F09131
:10280000A30280818F7D8083E0914403F091450392
:1028100020E030E040E06AE080E493E009958091B8
:10282000BA0381110E94021280E00E94EB1180E441
:1028300093E00E942112C0917B0380917A03C80F1C
:10284000E0914003F09141038189C817D0F080E402
:1028500093E00E94171280E00E94EB11E091440384
:10286000F091450320E030E040E06BE080E493E04D
:10287000099580918B0390918C038856904041F488
:10288000B5C08091BA0381110E9402128C2FCDCF66
:10289000E8E6F0E0F0938C03E0938B03E491E0939F
:1028A0009C03E9E6F0E0E491E0939D03EAE6F0E0C2
:1028B000E491E0939E03EBE6F0E0E491E0939F0364
:1028C000ECE6F0E0E491E093A003EDE6F0E0E491C3
:1028D000E093A103EEE6F0E0E491E093A203EFE6DB
:1028E000F0E0E491E093A303E0E7F0E0E491E0930B
:1028F000A403E1E7F0E0E491E093A503E2E7F0E070
:10290000E491E093A603E3E7F0E0E491E093A7030A
:10291000E4E7F0E0E491E093A803E5E7F0E0E49178
:10292000E093A903E6E7F0E0E491E093AA03E7E788
:10293000F0E0E491E093AB03E8E7F0E0E491E093AA
:10294000AC0361E188E690E00E94CC089093AE036E
:102950008093AD0363E188E690E00E94CC089093F9
:10296000B0038093AF0365E188E690E00E94CC0855
:102970009093B2038093B10380918B0390918C0369
:10298000892BA1F18091A9038093B5034091AA03FB
:102990004093B6039091B403992341F1913069F4C7
:1029A0009091AB03891714F49093B5038091AC0315
:1029B0008417E4F48093B60319C03091A6032091E4
:1029C000A803082E000C990B622F022E000C770B27
:1029D000630F711D37FD7A95861797071CF4320F28
:1029E0003093B503241714F42093B60362E082E019
:1029F0000E94691061E083E00E94691061E084E058
:102A00000E94691061E085E00E94691062E086E042
:102A10000E94691062E088E00E94691062E087E02D
:102A20000E94691062E089E00E9469108BE896E0DC
:102A30009093010180930001809169008C7F8260F6
:102A400080936900E89A11E041E3242E43E0342E9C
:102A500054E6452E512C612C712CC0E0D0E00E9430
:102A6000A51060932D0370932E0380932F039093F2
:102A700030032FB7F8948091DA019091DB01A09197
:102A8000DC01B091DD012FBF8093CE019093CF0187
:102A9000A093D001B093D10189E00E941110892B3D
:102AA000B9F58091CD01882399F180911401882393
:102AB00029F01093D3011092D20104C01092D301D7
:102AC0001093D2011092CD0186E00E941110892B43
:102AD00009F046C08091CE019091CF01A091D00124
:102AE000B091D101409108015091090160910A0112
:102AF00070910B014C015D01841A950AA60AB70A70
:102B000029E5821622E09206A104B10430F428C01F
:102B10001092D3011092D201D7CF809308019093E5
:102B20000901A0930A01B0930B018091CD0181119D
:102B300012C09091D3018091D201911105C08111F1
:102B400003C01093CD0169C0882339F01093CD01E3
:102B50001092D20102C01092CD011093D9015DC034
:102B60008091CC01882311F0FE010995D101ED91EE
:102B7000FD918081ED91FD919081ED91FD916C91A0
:102B800063708E2309F064609F2309F06860E3EDB1
:102B9000F5E1E60FF11D659565956D936D917D915C
:102BA0008D919D91099423C01AC012C016C010C007
:102BB0001EC009C014C013C006C019C009C00DC092
:102BC00007C00DC014C062507040804090400BC0E0
:102BD000615070408040904006C06E5F01C06F5FE2
:102BE0007F4F8F4F9F4F9E938E937E936E938091D6
:102BF000380390913903A0913A03B0913B0340917F
:102C0000040150910501609106017091070184173C
:102C10009507A607B70709F08CC080901001909027
:102C20001101A0901201B0901301C0900C01D0903E
:102C30000D01E0900E01F0900F016091140184E00D
:102C40000E943A108091CD01882309F45DC08091E3
:102C5000CE019091CF01A091D001B091D1014497C4
:102C6000A105B105B8F0D501C4018C199D09AE09C3
:102C7000BF0981F00AF4D4C0D701C6010196A11D95
:102C8000B11D7501640188159905AA05BB0510F4ED
:102C90006C017D01C0920C01D0920D01E0920E01F9
:102CA000F0920F0180912D0390912E03A0912F039C
:102CB000B09130034091D5015091D6016091D70178
:102CC0007091D8014C015D01841A950AA60AB70AD1
:102CD0008C149D04AE04BF0488F08093D5019093BA
:102CE000D601A093D701B093D8018091D40181116E
:102CF00003C01093D40102C01092D4016091D4019A
:102D000085E00E943A100AC060E085E00E943A1017
:102D100060E083E00E943A100E94ED0A8091D901A0
:102D2000882321F00E94ED0A1092D9010E94F2023C
:102D300096CE8093040190930501A0930601B09371
:102D40000701181619061A061B067CF410931401C5
:102D500085369105A105B10544F0409204015092D9
:102D60000501609206017092070180910401909123
:102D70000501A0910601B0910701B7FF15C010929F
:102D800014018C399F4FAF4FBF4F74F43CE9832E31
:102D900099249A94A92CB92C80920401909205014F
:102DA000A0920601B09207011093D901809104010D
:102DB00090910501A0910601B09107019C01AD0120
:102DC0002C593F4F4F4F5F4FA8EEB3E00E9484183D
:102DD00028EC30E040E050E00E946518DA01C901BB
:102DE000845F9140A109B109B7FF07C0B095A095D4
:102DF000909581959F4FAF4FBF4F29EFA22EBB24D7
:102E0000B394C12CD12CA81AB90ACA0ADB0AA09221
:102E10001001B0921101C0921201D0921301FDCEA7
:102E2000D701C6010197A109B1097501640188168E
:102E30009906AA06BB0608F02DCF2ACFCF93DF93C1
:102E40001092C2031092C10388EE93E0A0E0B0E0BC
:102E50008093C3039093C403A093C503B093C603A8
:102E600026E531E03093C0032093BF031092930214
:102E7000109292028093940290939502A0939602EE
:102E8000B093970288E691E090939102809390022C
:102E900085EC90E090939D0280939C0284EC90E0FE
:102EA00090939F0280939E0280EC90E09093A10209
:102EB0008093A00281EC90E09093A3028093A20201
:102EC00082EC90E09093A5028093A40286EC90E0BF
:102ED0009093A7028093A6021092A9021092AA02D0
:102EE0001092AB021092AC0210923F0310923E037C
:102EF00088ED94E09093BC038093BB031092BD03D4
:102F00001092BE03109258038AE791E090933D031C
:102F100080933C031092410310924003109255039A
:102F200010924C0310924D0310924E0310924F03D7
:102F30008FEF8093560380935A03EEE5F3E0CFEFD3
:102F4000819393E0E437F907D1F78BE793E090930F
:102F500045038093440384E394E090934703809374
:102F6000460385E995E090934903809348038BEBF2
:102F700096E090934B0380934A0320E030E040E0DA
:102F800069E080E493E00E947B0310928C0310922E
:102F90008B0385E495E090937503809374038BEC29
:102FA00093E0909379038093780388E080937A0389
:102FB00010927B03109298031092B80381E08093E3
:102FC000B9038093BA0382E891E0909377038093EA
:102FD000760380E493E00E94EF041092870310923E
:102FE0008903C0938803C0938A03E0917603F0912C
:102FF00077030280F381E02D80E493E0099583E973
:1030000095E090938E0380938D0310929B038DE047
:1030100080935E038BE080935F038AE08093670375
:103020008CE08093690362E088E00E94691062E0AE
:1030300087E00E946910E9E6F5E0E491F0E0EE0F28
:10304000FF1FE95AFA4FA591B491B0933203A093B0
:103050003103EBE4F5E0849180933503E8E6F5E095
:10306000E491F0E0EE0FFF1FE95AFA4FC591D491B9
:10307000D0933403C0933303EAE4F5E09491909342
:103080003603109238031092390310923A031092CB
:103090003B03EBE3FFE13197F1F7EC91E82381E0AB
:1030A00009F480E0E881E92309F082608093370326
:1030B0000E94A51060932D0370932E0380932F031D
:1030C00090933003DF91CF910895052E97FB1EF466
:1030D00000940E947C1857FD07D00E948F1807FCAF
:1030E00003D04EF40C947C18509540953095219562
:1030F0003F4F4F4F5F4F0895909580957095619524
:103100007F4F8F4F9F4F08950E94B118A59F900D3C
:10311000B49F900DA49F800D911D11240895A1E2EC
:103120001A2EAA1BBB1BFD010DC0AA1FBB1FEE1F41
:10313000FF1FA217B307E407F50720F0A21BB30B8C
:10314000E40BF50B661F771F881F991F1A9469F708
:1031500060957095809590959B01AC01BD01CF0164
:103160000895A29FB001B39FC001A39F700D811D60
:103170001124911DB29F700D811D1124911D089580
:1031800097FB072E16F4009407D077FD09D00E9414
:10319000D41807FC05D03EF4909581959F4F089573
:1031A000709561957F4F0895AA1BBB1B51E107C025
:1031B000AA1FBB1FA617B70710F0A61BB70B881FC7
:1031C000991F5A95A9F780959095BC01CD01089556
:1031D000EE0FFF1F0590F491E02D099481E090E03F
:1031E000F8940C94FA18DC0101C06D9341505040E2
:0831F000E0F70895F894FFCF09
:1031F800030C030C19FCFFFF58020000F401000047
:10320800F40100000118153815081534150119FFC7
:10321800181538150C19FFFE6418FE0A153815081C
:10322800150615021501FE0419FF01000505010622
:10323800148C40420F0003041E2810080000800070
:10324800400000000000CB0DC00DB806B20DB90D4E
:10325800B60DB30D000000006B0C040C2E0CB80C5E
:10326800E6023D0C510C00000000D8088F06B80695
:08327800B706EF04D907E204D8
:00000001FF
