:100000000C9462000C946B0F0C94440F0C948A00B7
:100010000C948A000C948A000C948A000C948A0038
:100020000C948A000C948A000C948A000C948A0028
:100030000C948A000C948A000C948A000C948A0018
:100040000C94FA0E0C948A000C94B80F0C94920F36
:100050000C948A000C948A000C948A000C948A00F8
:100060000C94400C0C948A0000000000240027002F
:100070002A0000000000250028002B0000000008D6
:10008000000201000003040700000000000000005F
:10009000010204081020408001020408102001021F
:1000A000040810200000000023002600290004049A
:1000B0000404040404040202020202020303030310
:1000C0000303EA0F11241FBECFEFD8E0DEBFCDBF80
:1000D00011E0A0E0B1E0E6E9F9E202C005900D927E
:1000E000A838B107D9F727E0A8E8B1E001C01D9210
:1000F000AA3CB207E1F710E0C2E6D0E004C02197C5
:10010000FE010E94B714C136D107C9F70E94311110
:100110000C94C9140C940000FC01918D228D892F40
:1001200090E0805C9F4F821B91098F7399270895FF
:1001300080E090E0892B29F00E94810E81110C94BF
:100140000000089580E00895DC011A96ED91FC917D
:100150001B9720E030E00994DC011696ED91FC91AC
:10016000179720E030E040E069E10994DC01169641
:10017000ED91FC91179720E030E040E068E10994B0
:100180009A01DC011696ED91FC911797462F67E1D5
:100190000994EF92FF920F931F93CF93DF931F92D7
:1001A000CDB7DEB77C018B01D8016C916731E1F0EE
:1001B00078F46531A0F1F80141814983D7011696A1
:1001C000ED91FC91179720E030E0C701099524C01C
:1001D0006A31A8F06E3F19F5F8014181498369E25F
:1001E000C7010E94A40018C0F80181818983AE0173
:1001F0004F5F5F4F61E0C7010E94C0000DC00F5FFD
:100200001F4FD7011696ED91FC91179720E030E033
:1002100040E0C7010995C8CF0E5F1F4FC5CF0F90B3
:10022000DF91CF911F910F91FF90EF900895462F8E
:10023000DC011696ED91FC91179720E030E065E126
:100240000994AF92BF92CF92DF92EF92FF920F93F9
:100250001F93CF93DF93EC01693031F48AE391E08F
:10026000998388831C8A7FC079016B30E1F16F30FC
:1002700009F444C06A3009F078C0EA85FB8520E0C3
:1002800030E040E068E20995EE81FF8120E030E057
:1002900040E064E1CE01099541E06BE4CE010E94AB
:1002A000A400E881F981448169E2CE010E94A400A2
:1002B00040E06BE4CE010E94A400E881F981448112
:1002C00069E2CE010E94A40041E06BE4CE010E94ED
:1002D000A400E881F981458169E2CE010E94A40071
:1002E00067E271E007C0411103C060E271E002C043
:1002F00065E171E0CE010E94C90035C0F9010481B9
:10030000000F000F000F13811695003210F00052FD
:10031000185FCE010E94B600F701A080B1806EE3A5
:10032000CE010E9417016EE3CE010E941701D12C6D
:1003300010686D2D600F6068CE010E941701612F5B
:10034000CE010E941701F701C280A5016C2DCE01DC
:100350000E94C000AC0CB11CD394F8E0DF12E9CFCE
:10036000CE010E94AC0081E001C080E0DF91CF911E
:100370001F910F91FF90EF90DF90CF90BF90AF90C3
:1003800008959A01DC011896ED91FC911997462F7A
:1003900067E10994CF93DF931F92CDB7DEB76983EE
:1003A000AE014F5F5F4F61E00E94C1010F90DF918E
:1003B000CF910895CF92DF92EF92FF920F931F9308
:1003C000CF93DF93EC01142F7901663131F1F8F40A
:1003D000643109F47BC0653109F086C068EF0E9482
:1003E000CA0141E06CE2CE010E94A400612F607F4F
:1003F000CE010E94CA0141E06CE2CE010E94A4003D
:10040000612F6295607FCE010E94CA0158C067319A
:1004100099F06A3108F068C059C068EF0E94CA01BB
:10042000612F607FCE010E94CA01612F6295607FBB
:10043000CE010E94CA0148C06AEF0E94CA0141E091
:100440006CE2CE010E94A4006701012F083058F42D
:10045000812F8695869586951770E8E08E9FE00C33
:10046000F11C11241AC0ECEBF1E0D6018D91982F0C
:10047000907F90838295807F8183329681E0EC3CEF
:10048000F807A1F798E0C90ED11C08504CEB51E0D9
:1004900060E1CE010E94C101D9CF112381F0F701A3
:1004A00001917F01602F607FCE010E94CA01602F01
:1004B0006295607FCE010E94CA011150EECF41E0EB
:1004C0006CE2CE010E94A40081E00FC0E885F985AE
:1004D0009701412FCE01DF91CF911F910F91FF9096
:1004E000EF90DF90CF90099480E0DF91CF911F9142
:1004F0000F91FF90EF90DF90CF900895662329F041
:100500006A3019F0862F90E008958FEF9FEF0895DD
:100510000F93DC01DE963C91DE97431BD496ED9160
:10052000FC91D59709950F910895CF93DF93FC0126
:10053000A081B18192AD892F880F880F880F85AF78
:1005400050968C915097803208F08FE1880F880F79
:10055000880F84AF23AD822F880F880F880F86AF56
:1005600051963C915197422F50E0490F511D632FF6
:1005700070E06417750714F4932F921B87AFEF0197
:10058000C05CDF4F28E0929F800D11248883219664
:1005900080EF888354968D919C915597813F91056A
:1005A00008F48883EE5BFF4F56968C918083DF9131
:1005B000CF9108956150FC01808D681710F06FEFA6
:1005C000680F862F08956F5FFC01808D681708F013
:1005D00060E0862F08950F93CF93DF93DC01ED91B8
:1005E000FC915089362F3770E0E8F0E002C0F595B5
:1005F000E7953A95E2F73E2FA52FB0E0FC01C0AD9C
:10060000D1AD669566956695E62FF0E0459FE00DC5
:10061000F11D1124EC0FFD1FEC01C758DF4F011134
:100620001DC08881823018F49081932B908388813B
:10063000813019F0908193279083369511F431968B
:1006400030E8215071F711C08881813019F0908114
:1006500093279083EA0FFB1F215039F08881823065
:1006600098F79081932B9083EFCFDF91CF910F91EB
:1006700008950F93FC01EB5BFF4F30813196508161
:10068000451728F4301730F0041720F010C0301749
:10069000D8F30DC0FC01ED5BFF4F308131968081B6
:1006A000681738F4321740F081E0261730F080E008
:1006B00004C03217C8F3FBCF81E00F9108952F9249
:1006C0003F924F925F926F927F928F929F92AF92E2
:1006D000BF92CF92DF92EF92FF920F931F93CF932F
:1006E000DF93EC014C0183E4880E911CF40110822D
:1006F000329720805E01F4E4AF0EB11CF501208238
:100700003FAC6E01F5E4CF0ED11CF6013082359777
:1007100040807E01F6E4EF0EF11CF7014082349632
:100720001081329760803196708032975080012F0F
:10073000262D472D652DCE010E943903CD58DF4F60
:10074000811102C0188212C081E08883552011F007
:10075000F4015082621410F4F5016082371410F431
:10076000F6017082141510F4F7011083DF91CF9118
:100770001F910F91FF90EF90DF90CF90BF90AF90BF
:100780009F908F907F906F905F904F903F902F90B1
:10079000089580E00895FC01E60FF11D849190E03A
:1007A000982F88273196E4918E0F911D08951F93FD
:1007B000CF93DF93EC01A881B981683109F493C02C
:1007C00030F4643109F484C0673149F0E1C0693123
:1007D00009F4CDC0603209F0DBC06AE4D4C01C96D5
:1007E0008C9180FD5EC0442309F4D0C0F901819151
:1007F0009F014150DFB7F894A091BA01B091BB01BD
:100800009091B901E091B701F091B801C091B601A2
:100810007091B50181110EC08C9198239C9388E052
:1008200090819C2B90839081972390838150C1F776
:10083000DFBFD9CF1091B40158E06C9187FF02C09F
:10084000612B01C069236C9360816C2B6083880FDE
:10085000608167236083515081F7EACFF90181916C
:100860009F014150DFB7F894A091BA01B091BB014C
:100870009091B901E091B701F091B8017091B60182
:10088000C091B501811110C08C9198239C9388E090
:1008900090819C2390839081972B90838150C1F706
:1008A000DFBF4111DBCF72C01091B40158E06C91F1
:1008B00087FF02C0612B01C069236C9360816C23A8
:1008C0006083880F6081672B6083515081F7E8CF88
:1008D00011964C9169E40E94A400E881F981448555
:1008E000417060E450C04C9169E40E94A400A8816A
:1008F000B981EA85FB8520E030E012964C916CE2EC
:10090000CE0109958E8D90E0FC01E255FF4FE491F8
:10091000F0E0EE0FFF1FEE58FF4F2591349130931A
:10092000B8012093B701FC01E057FF4FE491E09339
:10093000B601E095E093B5018F8D90E0FC01E255A2
:10094000FF4FE491F0E0EE0FFF1FEE58FF4F2591AF
:1009500034913093BB012093BA01FC01E057FF4F63
:10096000E491E093B401E095E093B9010FC0EA850A
:10097000FB8520E030E013964C916CE20995E8810C
:10098000F981418169E4CE010E94A40081E001C0A7
:1009900080E0DF91CF911F91089581E08093B807A7
:1009A0000895CF92DF92EF92FF920F931F93CF9310
:1009B000DF936C01EB017B01E40EF51E00E010E01B
:1009C000CE15DF0561F06991D601ED91FC910190A2
:1009D000F081E02DC6010995080F191FF1CFC8015C
:1009E000DF91CF911F910F91FF90EF90DF90CF900B
:1009F0000895089580E090E008958F929F92AF92BD
:100A0000BF92CF92DF92EF92FF92CF93DF93EC01F0
:100A10006C3288F46A3208F089C06832B9F0693201
:100A200009F06DC0C42ED12CE12CF12C0E94FE0DDA
:100A30004B015C013DC06D3209F440C008F45FC059
:100A400084EB860F823008F448C059C07C012EE147
:100A5000E20EF11CD0E0F70181917F018F3F39F068
:100A6000D03110F461E001C062E00E94C20DDF5F8E
:100A7000D63189F75BC00E94FE0DDC01CB018819DD
:100A80009909AA09BB09883E9340A105B10580F0E8
:100A9000F1E0CF1AD108E108F10828EE820E23E038
:100AA000921EA11CB11CC114D104E104F10419F778
:100AB000C114D104E104F104F1F638C0433018F058
:100AC00082E090E002C085E090E0880F991F880FD7
:100AD000991F05970197F1F729C0862F8F73C80FCB
:100AE000D11D411107C061E08E8D0E94C20D60E0F2
:100AF0008E8D12C062E08E8D0E94C20D17C06034D0
:100B0000B8F0962F9F73FE01E90FF11D868D8F3F80
:100B100069F0903120F4642F0E94930D07C00E9469
:100B20006A0D21E0892B09F420E0298F81E001C0C2
:100B300080E0DF91CF91FF90EF90DF90CF90BF905A
:100B4000AF909F908F900895FC01848DDF01A80FD6
:100B5000B11DA35ABF4F2C91848D90E001968F73E5
:100B60009927848FA689B7892C93A089B1898C9104
:100B7000837080648C93938D848D981306C0028853
:100B8000F389E02D80818F7D80830895FC0140856D
:100B9000518582859385481759072CF5248535851D
:100BA00084819581280F391F35872487668577854D
:100BB00086819781860F971F978786871816190653
:100BC00064F460817181260F371F35872487228165
:100BD0003381821B930B978786874F5F5F4F5187C7
:100BE000408781E0089580E008950F93DC01802F15
:100BF000FD01ED58FF4F9081992309F463C0222332
:100C000009F460C0223048F0023019F46F5F621BB3
:100C100004C0033011F44F5F421B082F0170FD0127
:100C200080FD25C0EB5BFF4F8081481708F44AC068
:100C300031968081481708F045C0329790813197EE
:100C40008081260F261730F4691718F42FEF290F2B
:100C500003C0682F6917B0F58217A0F5681708F46C
:100C6000682F291708F4922F292F261B22C0ED5B2D
:100C7000FF4F8081681730F131968081681710F539
:100C80003296908131978081240F241730F44917D0
:100C900018F42FEF290F03C0482F491798F4821733
:100CA00088F4481708F4482F291708F4922F292FA1
:100CB000241BD696ED91FC91D7970480F581E02D09
:100CC000CD0109950F910895213039F020F022309F
:100CD00031F4861B0895860F0895841B0895840FB0
:100CE0000895213039F020F0223031F4841B08952A
:100CF000840F0895860F0895861B08952F923F92C2
:100D00004F925F926F927F928F929F92AF92BF921B
:100D1000CF92DF92EF92FF920F931F93CF93DF93C7
:100D2000CDB7DEB727970FB6F894DEBF0FBECDBFA5
:100D30007C016C0124E0C20ED11CFC01E158FF4F84
:100D40000190F081E02DC60109958C018E3F9F4FE7
:100D500008F0CEC1370182E8680E711CF301F08102
:100D6000FB83470121E8820E911CF401F081FD8391
:100D70009701215A3F4F3A832983F90180818130BD
:100D8000E9F080F0823031F1833079F5F701EF5AE4
:100D9000FF4F0190F081E02DC60109959D81980FCC
:100DA0009D8323C0F701EF5AFF4F0190F081E02DA2
:100DB000C6010995FB81F80FFB8317C0F701EF5AB5
:100DC000FF4F0190F081E02DC60109952D81281B70
:100DD0002D830BC0F701EF5AFF4F0190F081E02DFA
:100DE000C60109953B81381B3B83F701EB5AFF4F46
:100DF0002D81208331963B8130833797808191818B
:100E000047969C838B830F3F110509F070F50136DF
:100E1000110510F0B49606C00134110558F0F70121
:100E2000EF58FF4F808191812B813C81280F391F22
:100E30003C832B838B819C810196FC01249122238E
:100E400009F454C1EB81FC81249130E002171307AF
:100E500029F45F01F2E0AF0EB11C46C0FC018491A1
:100E60002B813C81280F311DE3CFF701EB58FF4F59
:100E7000A080B1808B819C81A80EB91EBC82AB8200
:100E800060E0C5010E94CB03EB81FC81E80FF91FF4
:100E9000FC83EB8362E0C5010E94CB03F4E0AF0E5C
:100EA000B11C8017910760F3EB81FC81849190E085
:100EB000982F88273196E4918E2B009709F416C15C
:100EC0000817190731F4AB80BC80F3E0AF0EB11CFA
:100ED0000BC0EB81FC813296E4912B813C812E0F7B
:100EE000311D3C832B83E0CFA114B10409F4FEC073
:100EF000C7018D5A9F4F9F838E83FC01B182A082D0
:100F00001086719660810E94440AEE81FF8186837B
:100F1000F701EB59FF4F60818E819F810E94440A47
:100F2000A82EEE81FF818783970123583F4F3C8392
:100F30002B83F9019081EE81FF81928781E09111ED
:100F400080E0EE81FF818387F701EA59FF4F10812E
:100F5000612F8E819F810E94440A9FEF910F01E0D3
:100F600010E0980101C0220F9A95EAF7482E421A24
:100F7000F701E959FF4FB0806B2D8E819F810E9450
:100F8000440ABA94180101C0220CBA94EAF78A0DF7
:100F90008D83F701E859FF4FB0806B2D8E819F81C3
:100FA0000E94440ABA9401C0000FBA94EAF7582E7E
:100FB000501AEE81FF81068110160CF07FC0B484B8
:100FC000322CFD813F1A2B2D432D642DEE81FF81A4
:100FD00082810E946406182FEE81FF8182832B2D6F
:100FE000432D642D83810E947106EE81FF818383EE
:100FF000F1E0BF16B1F0BF1678F022E0B216B9F0FA
:1010000033E0B3121FC0212F2A0D982F901B01E04F
:10101000080F81E0890F18C0202F210F082F0A0D1B
:1010200013C0BA1821E0210F080F1B0D0DC091E06D
:10103000392F301B21E0210F9A1901E0080F890F89
:10104000130F02C0082F212F482F612FC6010E94C5
:101050003903882399F1EE81FF81148215821701EB
:10106000F2E62F0E311C23E6E20EF11CF101608145
:101070008E819F810E94440A082FF70160818E8132
:101080009F810E94440A182F40E0602FC6010E94F1
:10109000710A41E0612FC6010E94710A61E08E81F0
:1010A0009F810E94440A8111EFCFEE81FF818581EB
:1010B0008A15E4F28285EB81FC818083E981FA81E3
:1010C0008081813049F030F0823059F0833081F4F2
:1010D000F30108C0F40101C0F3018081580E508271
:1010E00007C0F40180818519808302C0512CE6CFAE
:1010F00081E090E027960FB6F894DEBF0FBECDBF1B
:10110000DF91CF911F910F91FF90EF90DF90CF90E3
:10111000BF90AF909F908F907F906F905F904F9017
:101120003F902F9008950F93CF938091100190914D
:101130001101A0911201B09113019C01AD01245F36
:10114000314041095109AFE2B0E00E94531421E15E
:101150003EEF4FEF5FEF0E9434142093B0013093C5
:10116000B1014093B2015093B3018091B9079091BE
:10117000BA07A091BB07B091BC074091AC01509158
:10118000AD016091AE017091AF01841B950BA60B70
:10119000B70B893C9105A105B10508F45EC080E854
:1011A00092E00E94CA0A08E328E449E268E380E882
:1011B00092E00E94390381110EC08091100190913C
:1011C0001101A0911201B0911301893F9140A10535
:1011D000B10571F427C0C9E200E020E14C2F68E3BB
:1011E00080E892E00E94F505CF5FC833A9F7E5CF0C
:1011F000809114012091B0013091B101882339F020
:10120000C901875B9F4FA9014F5A5F4F08C087E311
:1012100090E0821B930B4FE250E0421B530BBC014A
:101220000E94DE0A80E892E00E94CA0B80E892E009
:101230000E94C00B2FB7F8948091BD079091BE0714
:10124000A091BF07B091C0072FBF8093AC019093CE
:10125000AD01A093AE01B093AF01CF910F9108956E
:10126000EF92FF920F931F93CF93DF9323E1829F1F
:10127000C0011124EC01CA57DC4F6A8984E0689FE1
:10128000F0011124E659FC4FE280F38000811181C6
:10129000E889F9898AE693E0099594E0899FF0014D
:1012A0001124E659FC4F42815381208131818A8B80
:1012B000C901801B910B9A012E193F093B832A8398
:1012C0005B874A87F986E8861D870C8797FD08C0EB
:1012D00041E050E0598348831F861E86FC010EC002
:1012E0004FEF5FEF59834883EE27FF27E81BF90B89
:1012F00041E050E0421B530B5F874E87B9010E94CB
:101300008F147D836C83CF01B9010E948F149F835A
:101310008E83DF91CF911F910F91FF90EF900895F1
:10132000EF92FF920F931F93CF93DF938C0183E192
:10133000689FF0011124E659FC4F86A57F019CE2CD
:10134000E90EF11CEF01AE96D701ED91FC91682FEB
:101350008AE693E00995B4E08B9FF0011124E659E9
:10136000FC4F228133812017310711F48883ECCFA1
:10137000DF91CF911F910F91FF90EF90089585ED30
:101380008093BC008091BC0084FDFCCF109244038C
:10139000089540912003262F30E0240F311D213283
:1013A0003105DCF4209144032430C9F4FC0180E0D1
:1013B00090E0861758F4309120032191DC01A05071
:1013C000BD4FA30FB11D2C930196F3CF8091200345
:1013D000680F6093200380E0089581E0089582E023
:1013E000089508958FEF9FEF08958FEF9FEF089571
:1013F0008091FF0290E09195819591090895CF9396
:10140000DF93CB01EA01642F0E94C909CE01DF916D
:10141000CF910895CF93DF931F92CDB7DEB7698345
:1014200061E0CE0101960E94C90981E090E00F9031
:10143000DF91CF910895833081F028F4813099F0C5
:101440008230A1F008958730A9F08830B9F0843057
:10145000D1F4809180008F7D03C0809180008F77D0
:1014600080938000089584B58F7702C084B58F7D06
:1014700084BD08958091B0008F7703C08091B00043
:101480008F7D8093B0000895DC0118964C911897D9
:10149000ED91FC911197249130E0042E02C0359516
:1014A00027950A94E2F7842F860F883010F4E22FF4
:1014B0000DC031961196FC93EE93E49198E0941B45
:1014C00001C0EE0F9A95EAF7E22B885018968C939C
:1014D00081E090E001C0880F6A95EAF781508E2381
:1014E00008955F926F927F928F929F92AF92BF9278
:1014F000CF92DF92EF92FF920F931F93CF93DF93E0
:101500005C01162F642EEC01C15BDF4FDC80ED80A7
:101510004C0189E7880E911CFE80FD18CF2C1F1509
:1015200008F4C12E5B800C85202F4E2D6D2D8A81F5
:101530000E946406782E202F4E2D6D2D852D0E9441
:101540007106482F662011F08A8504C089858111B3
:1015500008C08B85F40180832C2D672DC5010E9466
:10156000F5051F1520F01F19E394D12CD5CF1D0DC3
:101570001C83ED82DF91CF911F910F91FF90EF902F
:10158000DF90CF90BF90AF909F908F907F906F90A3
:101590005F900895FC01A081B18150969C9142AD6D
:1015A000949FA001112483E0440F551F8A95E1F711
:1015B00060E070E080AD91AD0C94C2140F93CF93B6
:1015C000DF9390936B0380936A0388E290E090939B
:1015D0006D0380936C0370936F0360936E0388E3D5
:1015E00090E0909371038093700350937303409342
:1015F000720380E390E0909375038093740383E01B
:101600008093820383EE92E09093AA038093A903D0
:101610008AED92E09093970380939603109298033B
:1016200080E190E090938503809384031092AB0354
:1016300061E088E290E00E94900960E088E290E03A
:101640000E94900981E080938303A091980384E035
:10165000A89FD0011124A659BC4FE091AB0384E0B0
:10166000E89FF0011124E659FC4F2D913C918081B7
:1016700091812817390719F0109283030CC08091CB
:10168000840390918503019790938503809384034D
:10169000892B09F471C0C0918403D091850380E047
:1016A0000E94300981E00E943009809183038823E1
:1016B00041F086E893E00E94C60589E993E00E9424
:1016C000C6054091A1035091A20357FD3CC08091F3
:1016D000C20290E048175907B4F5809192039091A7
:1016E00093036091A5037091A60386179707ACF446
:1016F00077FD29C02091C10230E0821793071CF5C5
:1017000097FF02C080E090E0261737070CF4B9017C
:10171000262F281B00E0682F12C097FD14C02091CF
:10172000C10230E06217730774F477FF02C080E0F3
:1017300090E0821793070CF49C01261B00E080E8E0
:1017400092E00E94F50586E893E00E94C6058111AB
:1017500004C080E00E943009F6CF89E993E00E943E
:10176000C605811104C081E00E943009F6CF21979F
:101770001C161D060CF4A5CFDF91CF910F91089593
:10178000DC011496ED91FC91159720E030E040E0EB
:1017900060E10994AF92BF92CF92DF92EF92FF92F5
:1017A0000F931F93CF93DF9300D000D01F92CDB73C
:1017B000DEB78C01DC01DA96AC90DA97DB96EC9020
:1017C000DB97ED91FC91B188FE2CC12CD12CD80176
:1017D000ED91FC9111978089D8964D915C91D997A4
:1017E0001C82FD828B83B8E08B9FC00111248C9DED
:1017F00090018D9D300D9C9D300D1124CA01820FEA
:10180000931F9A838983D8011496ED91FC911597C3
:101810009E012F5F3F4F41E06FE0C8010995F394AF
:101820008F2D8E198A1528F4BFEFCB1ADB0AFB1413
:1018300070F20F900F900F900F900F90DF91CF915B
:101840001F910F91FF90EF90DF90CF90BF90AF90DE
:101850000895CF93DF93CCE7D2E08FAFEAADFBAD35
:101860000190F081E02D80E892E00995EAADFBADB2
:101870000280F381E02D80E892E0DF91CF9109941E
:101880001F920F920FB60F9211242F933F934F93F5
:101890005F936F937F938F939F93AF93BF93EF93D8
:1018A000FF938091B900887F803609F49CC068F569
:1018B000883209F45BC090F4803109F454C038F4E4
:1018C000882309F4F2C0883009F44DC0F2C0883191
:1018D00009F44CC0803209F45DC0EBC0803409F4D7
:1018E00068C048F4803309F455C0883309F0E1C07A
:1018F00080934303D4C0803509F44FC0883509F480
:101900005DC0883409F0D5C0D2C0883909F4C3C09D
:10191000A8F4883709F467C038F4883609F463C03E
:10192000803709F460C0C5C0883809F4B4C0803974
:1019300009F45FC0803809F0BCC05BC0803B09F48B
:1019400084C038F4803A09F466C0883A09F47DC04E
:10195000B0C0803C09F4A3C0883C09F4A0C0883B17
:1019600009F486C0A6C08091690310C090916803F5
:1019700080916703981770F5E091680381E08E0FFE
:1019800080936803F0E0E95BFC4F80818093BB00AB
:1019900085EC82C0809343038AC0E091680381E0B4
:1019A0008E0F809368038091BB00F0E0E95BFC4FF1
:1019B000808390916803809167036AC0E091680317
:1019C00081E08E0F809368038091BB00F0E0E95BBB
:1019D000FC4F808380914603811169C081E0809330
:1019E000450384EA5DC083E0809344031092420380
:1019F000CFCF80914203803208F04DC0E091420386
:101A000081E08E0F809342038091BB00F0E0EE5D99
:101A1000FC4F8083BDCF85EC8093BC0010924403C3
:101A200080914203803230F4E0914203F0E0EE5DB9
:101A3000FC4F10826091420370E082E293E0E0E0AC
:101A4000F0E009951092420334C084E0809344038F
:101A50001092210310922003E0E0F0E009958091BC
:101A60002003811105C081E08093200310920003C0
:101A7000E091210381E08E0F80932103F0E0E0509C
:101A8000FD4F80818093BB009091210380912003C2
:101A9000981708F47DCF85E88093BC000AC085ECD8
:101AA0008093BC001092440304C0109243030E9430
:101AB000BF09FF91EF91BF91AF919F918F917F915E
:101AC0006F915F914F913F912F910F900FBE0F90AB
:101AD0001F901895CF93DF93282F30E0F901E45839
:101AE000FF4F8491F901E057FF4FD491F901E2557E
:101AF000FF4FC491CC2391F081110E941B0AEC2F5F
:101B0000F0E0EE0FFF1FEC55FF4FA591B491EC9163
:101B1000ED2381E090E021F480E002C080E090E0DD
:101B2000DF91CF9108951F93CF93DF93282F30E05B
:101B3000F901E458FF4F8491F901E057FF4FD49128
:101B4000F901E255FF4FC491CC23C1F0162F81114A
:101B50000E941B0AEC2FF0E0EE0FFF1FEE58FF4F24
:101B6000A591B4919FB7F894111104C08C91D095B0
:101B7000D82302C0EC91DE2BDC939FBFDF91CF9185
:101B80001F910895CF93DF9390E0FC01E057FF4F42
:101B90002491FC01E255FF4F8491882361F190E08C
:101BA000880F991FFC01E859FF4FC591D491FC01A2
:101BB000EE58FF4FA591B491611109C09FB7F894F9
:101BC0008881209582238883EC912E230BC062307C
:101BD00061F49FB7F8948881322F309583238883EE
:101BE000EC912E2B2C939FBF06C08FB7F894E88101
:101BF0002E2B28838FBFDF91CF9108953FB7F894A4
:101C00008091CC019091CD01A091CE01B091CF01F6
:101C100026B5A89B05C02F3F19F00196A11DB11D47
:101C20003FBFBA2FA92F982F8827820F911DA11D82
:101C3000B11DBC01CD0142E0660F771F881F991FBF
:101C40004A95D1F708950895CF92DF92EF92FF92CF
:101C50000F931F93CF93DF936C017A018B01C0E048
:101C6000D0E0CE15DF0581F0D8016D918D01D60150
:101C7000ED91FC910190F081E02DC6010995892B31
:101C800011F02196EECF7E01C701DF91CF911F9118
:101C90000F91FF90EF90DF90CF900895FC01538D4E
:101CA000448D252F30E0842F90E0821B930B541736
:101CB00010F0CF96089501970895FC01918D828DC3
:101CC000981761F0828DDF01A80FB11D5D968C9190
:101CD000928D9F5F9F73928F90E008958FEF9FEF9B
:101CE0000895FC01918D828D981731F0828DE80F57
:101CF000F11D858D90E008958FEF9FEF08950E946C
:101D0000BD1480ED91E00E948C0021E0892B09F444
:101D100020E0822F0895EF92FF920F931F93CF93AD
:101D2000DF93EC0181E0888F9B8D8C8D981305C02B
:101D3000E889F989808185FD26C0F62E0B8D10E09B
:101D40000F5F1F4F0F731127E02E8C8DE8120CC010
:101D50000FB607FCFACFE889F989808185FFF5CFB6
:101D6000CE010E94A405F1CF8B8DFE01E80FF11D7D
:101D7000E35AFF4FF0829FB7F8940B8FEA89FB89F3
:101D8000808180620AC09FB7F894EE89FF896083E2
:101D9000E889F98980818370806480839FBF81E0B6
:101DA00090E0DF91CF911F910F91FF90EF900895F8
:101DB000CF93DF93EC01888D8823C9F0EA89FB89F2
:101DC000808185FD05C0A889B9898C9186FD0FC0E9
:101DD0000FB607FCF5CF808185FFF2CFA889B989BE
:101DE0008C9185FFEDCFCE010E94A405E7CFDF9156
:101DF000CF9108951F920F920FB60F9211242F9337
:101E00003F938F939F93AF93BF938091BD07909122
:101E1000BE07A091BF07B091C0073091C90723E06A
:101E2000230F2D3720F40196A11DB11D05C026E812
:101E3000230F0296A11DB11D2093C9078093BD07F2
:101E40009093BE07A093BF07B093C0078091CC01C9
:101E50009091CD01A091CE01B091CF010196A11D2D
:101E6000B11D8093CC019093CD01A093CE01B0938E
:101E7000CF01BF91AF919F918F913F912F910F9083
:101E80000FBE0F901F9018951F920F920FB60F92D2
:101E900011242F933F934F935F936F937F938F936F
:101EA0009F93AF93BF93EF93FF93E0910201F09163
:101EB00003010995FF91EF91BF91AF919F918F9190
:101EC0007F916F915F914F913F912F910F900FBE36
:101ED0000F901F9018951F920F920FB60F9211241A
:101EE0002F933F934F935F936F937F938F939F9322
:101EF000AF93BF93EF93FF93E0910001F091010145
:101F00000995FF91EF91BF91AF919F918F917F9133
:101F10006F915F914F913F912F910F900FBE0F9056
:101F20001F9018951F920F920FB60F9211242F93A6
:101F30003F934F935F936F937F938F939F93AF9351
:101F4000BF93EF93FF9380ED91E00E94A405FF9172
:101F5000EF91BF91AF919F918F917F916F915F9121
:101F60004F913F912F910F900FBE0F901F9018959A
:101F70001F920F920FB60F9211242F938F939F935E
:101F8000EF93FF93E091E001F091E1018081E09116
:101F9000E601F091E70182FD12C090818091E90194
:101FA0008F5F8F732091EA01821751F0E091E90170
:101FB000F0E0E053FE4F958F8093E90101C08081EE
:101FC000FF91EF919F918F912F910F900FBE0F90E6
:101FD0001F901895CF93DF931092AF031092AE032A
:101FE00088EE93E0A0E0B0E08093B0039093B1035B
:101FF000A093B203B093B30326E531E03093AD0371
:102000002093AC031092D3011092D2018093D4019B
:102010009093D501A093D601B093D70188E691E0C3
:102020009093D1018093D00185EC90E09093DD01F5
:102030008093DC0184EC90E09093DF018093DE01DB
:1020400080EC90E09093E1018093E00181EC90E0DE
:102050009093E3018093E20182EC90E09093E5019C
:102060008093E40186EC90E09093E7018093E60191
:102070001092E9011092EA011092EB011092EC012A
:1020800010927F0210927E028EE792E09093FC0203
:102090008093FB021092FD021092FE0210929802B1
:1020A0008AE791E090937D0280937C0210928102F6
:1020B000109280021092950210928C0210928D0262
:1020C00010928E0210928F028FEF8093960280936F
:1020D0009A02EEE9F2E0CFEF819392E0E43BF90758
:1020E000D1F781E291E090938502809384028AED9A
:1020F00091E0909387028093860287ED93E090931E
:102100008902809388028DEF94E090938B028093F4
:102110008A0220E030E040E069E080E892E00E943E
:1021200021011092CC021092CB028BEE92E09093A0
:10213000B5028093B40288EB93E09093B902809348
:10214000B80288E08093BA021092BB021092D802C3
:102150001092F80281E08093F9028093FA0282E8FB
:1021600091E09093B7028093B60280E892E00E94DB
:1021700095021092C7021092C902C093C802C09380
:10218000CA02E091B602F091B7020280F381E02D1D
:1021900080E892E0099589EC93E09093CE028093D9
:1021A000CD021092DB028DE080939E028BE0809343
:1021B0009F028AE08093A7028CE08093A90262E0EC
:1021C00088E00E94C20D62E087E00E94C20DE6EB4B
:1021D000F0E0E491F0E0EE0FFF1FEC55FF4FA5910A
:1021E000B491B0937202A0937102E8E9F0E0849197
:1021F00080937502E5EBF0E0E491F0E0EE0FFF1F55
:10220000EC55FF4FC591D491D0937402C0937302E3
:10221000E7E9F0E0949190937602109278021092A0
:10222000790210927A0210927B02EBE3FFE1319780
:10223000F1F7EC91E82381E009F480E0E881E923FB
:1022400009F08260809377020E94FE0D60936D0218
:1022500070936E0280936F0290937002DF91CF9122
:102260000895789484B5826084BD84B5816084BD0E
:1022700085B5826085BD85B5816085BD80916E0024
:10228000816080936E001092810080918100826055
:102290008093810080918100816080938100809192
:1022A00080008160809380008091B1008460809381
:1022B000B1008091B00081608093B00080917A007D
:1022C000846080937A0080917A00826080937A00A3
:1022D00080917A00816080937A0080917A00806892
:1022E00080937A001092C10084EF91E0A0E0B0E00A
:1022F00080930C0190930D01A0930E01B0930F01F8
:102300008093100190931101A0931201B0931301D7
:1023100060E085E00E94930D60E083E00E94930DF1
:102320001092B8071092C807E091E001F091E10126
:1023300082E08083E091DC01F091DD011082E09188
:10234000DE01F091DF0180E180831092E801E091ED
:10235000E401F091E50186E08083E091E201F091F3
:10236000E301808180618083E091E201F091E301EB
:10237000808188608083E091E201F091E3018081B7
:1023800080688083E091E201F091E30180818F7D9C
:102390008083E0918402F091850220E030E040E00B
:1023A0006AE080E892E009958091FA02882321F0A2
:1023B00080E892E00E94CA0A80E00E94290C80E82E
:1023C00092E00E94CA0BC091BB028091BA02C80F72
:1023D000E0918002F09181028189C81708F44AC017
:1023E00080E892E00E94C00B80E00E94290CE091FE
:1023F0008402F091850220E030E040E06BE080E86C
:1024000092E0099562E082E00E94C20D61E083E003
:102410000E94C20D61E084E00E94C20D61E085E08F
:102420000E94C20D62E086E00E94C20D62E088E078
:102430000E94C20D62E087E00E94C20D62E089E066
:102440000E94C20D8DEC94E09093010180930001F5
:10245000809169008C7F826080936900E89A11E026
:10246000212C312CC1E7D2E044E6442E512C612CC2
:10247000712CCFC08091FA02882321F080E892E08D
:102480000E94CA0A8C2F99CF8091C807882309F42B
:10249000E3C080911401882309F4B1C11093C207ED
:1024A0001092C1071092C80786E00E946A0D892B1E
:1024B00009F4D7C08091B807882311F0F10109957C
:1024C000DE01ED91FD918081ED91FD919081ED9185
:1024D000FD916C9163708E2309F064609F2309F075
:1024E0006860EDE7F2E1E60FF11D659565956D9386
:1024F0006D917D918D919D91099423C01AC012C058
:1025000016C010C01EC009C014C013C006C019C038
:1025100009C00DC007C00DC014C06250704080409B
:1025200090400BC0615070408040904006C06E5F8C
:1025300001C06F5F7F4F8F4F9F4F9E938E937E930F
:102540006E93C0907802D0907902E0907A02F09079
:102550007B028091040190910501A0910601B09148
:102560000701C816D906EA06FB0609F099C0809053
:10257000100190901101A0901201B0901301C09031
:102580000C01D0900D01E0900E01F0900F016091D0
:10259000140184E00E94930D8091C807882309F4F8
:1025A00023C18091B9079091BA07A091BB07B09160
:1025B000BC074497A105B10508F0EAC0C0920C0120
:1025C000D0920D01E0920E01F0920F0180916D0208
:1025D00090916E02A0916F02B09170024091C40779
:1025E0005091C5076091C6077091C7074C015D0106
:1025F000841A950AA60AB70A8C149D04AE04BF0477
:1026000008F0E0C06091C30785E00E94930D0E942E
:1026100098000E94FE0D60936D0270936E0280938D
:102620006F02909370022FB7F8948091BD0790913C
:10263000BE07A091BF07B091C0072FBF8093B90715
:102640009093BA07A093BB07B093BC0789E00E94A0
:102650006A0D892B09F418CF1092C2071092C10796
:1026600023CF8091B9079091BA07A091BB07B09191
:10267000BC07409108015091090160910A017091D5
:102680000B014C015D01841A950AA60AB70A29E5D7
:10269000821622E09206A104B10408F0B5C00ACF68
:1026A0000E949308C0920401D0920501E0920601B5
:1026B000F09207011C141D041E041F0484F41093DF
:1026C0001401B5E6CB16D104E104F10444F04092C4
:1026D00004015092050160920601709207018091F9
:1026E000040190910501A0910601B0910701B7FF87
:1026F00015C0109214018C399F4FAF4FBF4F74F427
:102700003CE9832E99249A94A92CB92C8092040137
:1027100090920501A0920601B092070180910401F8
:1027200090910501A0910601B09107019C01AD01B6
:102730002C593F4F4F4F5F4FA8EEB3E00E94531408
:1027400028EC30E040E050E00E943414DA01C90186
:10275000845F9140A109B109B7FF07C0B095A0956A
:10276000909581959F4FAF4FBF4F29EFA22EBB246D
:10277000B394C12CD12CA81AB90ACA0ADB0AA092B8
:102780001001B0921101C0921201D0921301EFCE4C
:10279000D501C4018C199D09AE09BF0909F40ECFFA
:1027A0000AF454C0D701C6010196A11DB11D7501DF
:1027B000640188159905AA05BB0508F0FFCE6C01D8
:1027C0007D01FCCE8093C4079093C507A093C607F4
:1027D000B093C7078091C307811103C01093C3074B
:1027E00011CF1092C3070ECF60E085E00E94930DD9
:1027F00060E083E00E94930D0E94930808CF10923E
:10280000C2071093C1074ECE80930801909309012F
:10281000A0930A01B0930B018091C807811113C0E6
:102820009091C2078091C107911105C0811103C029
:102830001093C8073FCE882309F43CCE1093C807F5
:102840001092C10737CE1092C80734CED701C60107
:102850000197A109B1097501640188169906AA06B4
:10286000BB0608F0ABCEABCF052E97FB1EF4009451
:102870000E944B1457FD07D00E945E1407FC03D042
:102880004EF40C944B1450954095309521953F4F44
:102890004F4F5F4F089590958095709561957F4F4C
:1028A0008F4F9F4F08950E948014A59F900DB49F55
:1028B000900DA49F800D911D11240895A1E21A2E60
:1028C000AA1BBB1BFD010DC0AA1FBB1FEE1FFF1FD4
:1028D000A217B307E407F50720F0A21BB30BE40B24
:1028E000F50B661F771F881F991F1A9469F760956B
:1028F0007095809590959B01AC01BD01CF01089525
:10290000A29FB001B39FC001A39F700D811D112430
:10291000911DB29F700D811D1124911D089597FB8B
:10292000072E16F4009407D077FD09D00E94A31457
:1029300007FC05D03EF4909581959F4F08957095C2
:1029400061957F4F0895AA1BBB1B51E107C0AA1FC9
:10295000BB1FA617B70710F0A61BB70B881F991F40
:102960005A95A9F780959095BC01CD010895EE0F79
:10297000FF1F0590F491E02D099481E090E0F89418
:102980000C94C914DC0101C06D9341505040E0F734
:062990000895F894FFCF4A
:10299600230E230E19FCFFFF58020000F40100006D
:1029A600F40100000118153815081534150119FF32
:1029B600181538150C19FFFE6418FE0A1538150887
:1029C600150615021501FE0419FF0100050501068D
:1029D600148C40420F0003041E28100800008000DB
:1029E6004000000000000A0AFF09FA04F109F8098C
:1029F600F509F209000000008B0E240E4E0ED80ECB
:102A06008C005D0E710E000000007E06D104FA04F3
:082A1600F90495025F03880238
:00000001FF
